{
  "_format": "hh-sol-artifact-1",
  "contractName": "ContentPlatform",
  "sourceName": "contracts/ContentPlatform.sol",
  "abi": [
    {
      "inputs": [],
      "stateMutability": "nonpayable",
      "type": "constructor"
    },
    {
      "anonymous": false,
      "inputs": [
        {
          "indexed": true,
          "internalType": "uint256",
          "name": "contentId",
          "type": "uint256"
        },
        {
          "indexed": true,
          "internalType": "address",
          "name": "user",
          "type": "address"
        }
      ],
      "name": "ContentAccessed",
      "type": "event"
    },
    {
      "anonymous": false,
      "inputs": [
        {
          "indexed": true,
          "internalType": "uint256",
          "name": "contentId",
          "type": "uint256"
        },
        {
          "indexed": true,
          "internalType": "address",
          "name": "creator",
          "type": "address"
        }
      ],
      "name": "ContentPosted",
      "type": "event"
    },
    {
      "anonymous": false,
      "inputs": [
        {
          "indexed": true,
          "internalType": "uint256",
          "name": "profileId",
          "type": "uint256"
        },
        {
          "indexed": true,
          "internalType": "address",
          "name": "owner",
          "type": "address"
        }
      ],
      "name": "ProfileCreated",
      "type": "event"
    },
    {
      "anonymous": false,
      "inputs": [
        {
          "indexed": true,
          "internalType": "address",
          "name": "creator",
          "type": "address"
        },
        {
          "indexed": true,
          "internalType": "address",
          "name": "tipper",
          "type": "address"
        },
        {
          "indexed": false,
          "internalType": "uint256",
          "name": "amount",
          "type": "uint256"
        }
      ],
      "name": "Tipped",
      "type": "event"
    },
    {
      "inputs": [
        {
          "internalType": "uint256",
          "name": "_contentId",
          "type": "uint256"
        }
      ],
      "name": "accessContent",
      "outputs": [],
      "stateMutability": "payable",
      "type": "function"
    },
    {
      "inputs": [],
      "name": "accessFee",
      "outputs": [
        {
          "internalType": "uint256",
          "name": "",
          "type": "uint256"
        }
      ],
      "stateMutability": "view",
      "type": "function"
    },
    {
      "inputs": [],
      "name": "accessFeePlatformShare",
      "outputs": [
        {
          "internalType": "uint256",
          "name": "",
          "type": "uint256"
        }
      ],
      "stateMutability": "view",
      "type": "function"
    },
    {
      "inputs": [
        {
          "internalType": "uint256",
          "name": "",
          "type": "uint256"
        },
        {
          "internalType": "address",
          "name": "",
          "type": "address"
        }
      ],
      "name": "contentAccess",
      "outputs": [
        {
          "internalType": "bool",
          "name": "",
          "type": "bool"
        }
      ],
      "stateMutability": "view",
      "type": "function"
    },
    {
      "inputs": [
        {
          "internalType": "uint256",
          "name": "",
          "type": "uint256"
        }
      ],
      "name": "contents",
      "outputs": [
        {
          "internalType": "uint256",
          "name": "id",
          "type": "uint256"
        },
        {
          "internalType": "string",
          "name": "title",
          "type": "string"
        },
        {
          "internalType": "string",
          "name": "body",
          "type": "string"
        },
        {
          "internalType": "address payable",
          "name": "creator",
          "type": "address"
        },
        {
          "internalType": "uint256",
          "name": "price",
          "type": "uint256"
        }
      ],
      "stateMutability": "view",
      "type": "function"
    },
    {
      "inputs": [
        {
          "internalType": "string",
          "name": "_username",
          "type": "string"
        },
        {
          "internalType": "string",
          "name": "_bio",
          "type": "string"
        }
      ],
      "name": "createProfile",
      "outputs": [],
      "stateMutability": "nonpayable",
      "type": "function"
    },
    {
      "inputs": [
        {
          "internalType": "uint256",
          "name": "_contentId",
          "type": "uint256"
        }
      ],
      "name": "getContent",
      "outputs": [
        {
          "internalType": "uint256",
          "name": "id",
          "type": "uint256"
        },
        {
          "internalType": "string",
          "name": "title",
          "type": "string"
        },
        {
          "internalType": "string",
          "name": "body",
          "type": "string"
        },
        {
          "internalType": "address",
          "name": "creator",
          "type": "address"
        },
        {
          "internalType": "uint256",
          "name": "price",
          "type": "uint256"
        },
        {
          "internalType": "bool",
          "name": "hasAccess",
          "type": "bool"
        }
      ],
      "stateMutability": "view",
      "type": "function"
    },
    {
      "inputs": [],
      "name": "getContentCount",
      "outputs": [
        {
          "internalType": "uint256",
          "name": "",
          "type": "uint256"
        }
      ],
      "stateMutability": "view",
      "type": "function"
    },
    {
      "inputs": [],
      "name": "owner",
      "outputs": [
        {
          "internalType": "address",
          "name": "",
          "type": "address"
        }
      ],
      "stateMutability": "view",
      "type": "function"
    },
    {
      "inputs": [
        {
          "internalType": "string",
          "name": "_title",
          "type": "string"
        },
        {
          "internalType": "string",
          "name": "_body",
          "type": "string"
        },
        {
          "internalType": "uint256",
          "name": "_price",
          "type": "uint256"
        }
      ],
      "name": "postContent",
      "outputs": [],
      "stateMutability": "payable",
      "type": "function"
    },
    {
      "inputs": [],
      "name": "postingFee",
      "outputs": [
        {
          "internalType": "uint256",
          "name": "",
          "type": "uint256"
        }
      ],
      "stateMutability": "view",
      "type": "function"
    },
    {
      "inputs": [],
      "name": "postingFeePlatformShare",
      "outputs": [
        {
          "internalType": "uint256",
          "name": "",
          "type": "uint256"
        }
      ],
      "stateMutability": "view",
      "type": "function"
    },
    {
      "inputs": [
        {
          "internalType": "address",
          "name": "",
          "type": "address"
        }
      ],
      "name": "profiles",
      "outputs": [
        {
          "internalType": "uint256",
          "name": "id",
          "type": "uint256"
        },
        {
          "internalType": "string",
          "name": "username",
          "type": "string"
        },
        {
          "internalType": "string",
          "name": "bio",
          "type": "string"
        },
        {
          "internalType": "address",
          "name": "owner",
          "type": "address"
        }
      ],
      "stateMutability": "view",
      "type": "function"
    },
    {
      "inputs": [
        {
          "internalType": "uint256",
          "name": "_newShare",
          "type": "uint256"
        }
      ],
      "name": "setAccessFeePlatformShare",
      "outputs": [],
      "stateMutability": "nonpayable",
      "type": "function"
    },
    {
      "inputs": [
        {
          "internalType": "uint256",
          "name": "_newFee",
          "type": "uint256"
        }
      ],
      "name": "setPostingFee",
      "outputs": [],
      "stateMutability": "nonpayable",
      "type": "function"
    },
    {
      "inputs": [
        {
          "internalType": "address payable",
          "name": "_creator",
          "type": "address"
        }
      ],
      "name": "tipCreator",
      "outputs": [],
      "stateMutability": "payable",
      "type": "function"
    },
    {
      "inputs": [
        {
          "internalType": "uint256",
          "name": "amount",
          "type": "uint256"
        }
      ],
      "name": "withdraw",
      "outputs": [],
      "stateMutability": "nonpayable",
      "type": "function"
    },
    {
      "inputs": [],
      "name": "withdrawAll",
      "outputs": [],
      "stateMutability": "nonpayable",
      "type": "function"
    },
    {
      "stateMutability": "payable",
      "type": "receive"
    }
  ],
  "bytecode": "0x608060405265b5e620f48000600455655af3107a40006005556050600655600a60075534801561002e57600080fd5b50600160008190555033600160006101000a81548173ffffffffffffffffffffffffffffffffffffffff021916908373ffffffffffffffffffffffffffffffffffffffff160217905550612d1f806100876000396000f3fe60806040526004361061010d5760003560e01c8063853828b611610095578063bbe1562711610064578063bbe156271461035e578063cdc649c01461039e578063d07a2a53146103c9578063d79a7134146103e5578063fc1e63291461040e57610114565b8063853828b6146102b25780638da5cb5b146102c9578063b5ecf912146102f4578063ba1feb8a1461033557610114565b8063492b85cd116100dc578063492b85cd146101ec57806352d18fba146102175780635d7bec091461024057806365c4e4aa1461026b57806374449ca41461028757610114565b80630b7ad54c146101195780631b7bfce11461015b5780632e1a7d4d146101865780633e5ffa75146101af57610114565b3661011457005b600080fd5b34801561012557600080fd5b50610140600480360381019061013b9190611aaf565b61042a565b60405161015296959493929190611bd7565b60405180910390f35b34801561016757600080fd5b506101706107a3565b60405161017d9190611c46565b60405180910390f35b34801561019257600080fd5b506101ad60048036038101906101a89190611aaf565b6107a9565b005b3480156101bb57600080fd5b506101d660048036038101906101d19190611c8d565b6108d6565b6040516101e39190611ccd565b60405180910390f35b3480156101f857600080fd5b50610201610905565b60405161020e9190611c46565b60405180910390f35b34801561022357600080fd5b5061023e60048036038101906102399190611aaf565b61090b565b005b34801561024c57600080fd5b506102556109a5565b6040516102629190611c46565b60405180910390f35b61028560048036038101906102809190611d26565b6109ab565b005b34801561029357600080fd5b5061029c610c13565b6040516102a99190611c46565b60405180910390f35b3480156102be57600080fd5b506102c7610c24565b005b3480156102d557600080fd5b506102de610d56565b6040516102eb9190611d53565b60405180910390f35b34801561030057600080fd5b5061031b60048036038101906103169190611aaf565b610d7c565b60405161032c959493929190611d7d565b60405180910390f35b34801561034157600080fd5b5061035c60048036038101906103579190611f13565b610ee2565b005b34801561036a57600080fd5b5061038560048036038101906103809190611f8b565b61110e565b6040516103959493929190611fb8565b60405180910390f35b3480156103aa57600080fd5b506103b361126e565b6040516103c09190611c46565b60405180910390f35b6103e360048036038101906103de919061200b565b611274565b005b3480156103f157600080fd5b5061040c60048036038101906104079190611aaf565b611605565b005b61042860048036038101906104239190611aaf565b6116e3565b005b60006060806000806000806009600089815260200190815260200160002090506000816000015403610491576040517f08c379a0000000000000000000000000000000000000000000000000000000008152600401610488906120e2565b60405180910390fd5b6000600a60008a815260200190815260200160002060003373ffffffffffffffffffffffffffffffffffffffff1673ffffffffffffffffffffffffffffffffffffffff16815260200190815260200160002060009054906101000a900460ff169050808061054e57503373ffffffffffffffffffffffffffffffffffffffff168260030160009054906101000a900473ffffffffffffffffffffffffffffffffffffffff1673ffffffffffffffffffffffffffffffffffffffff16145b156106b757816000015482600101836002018460030160009054906101000a900473ffffffffffffffffffffffffffffffffffffffff168560040154600184805461059890612131565b80601f01602080910402602001604051908101604052809291908181526020018280546105c490612131565b80156106115780601f106105e657610100808354040283529160200191610611565b820191906000526020600020905b8154815290600101906020018083116105f457829003601f168201915b5050505050945083805461062490612131565b80601f016020809104026020016040519081016040528092919081815260200182805461065090612131565b801561069d5780601f106106725761010080835404028352916020019161069d565b820191906000526020600020905b81548152906001019060200180831161068057829003601f168201915b50505050509350975097509750975097509750505061079a565b8160000154826001018360030160009054906101000a900473ffffffffffffffffffffffffffffffffffffffff16846004015460008380546106f890612131565b80601f016020809104026020016040519081016040528092919081815260200182805461072490612131565b80156107715780601f1061074657610100808354040283529160200191610771565b820191906000526020600020905b81548152906001019060200180831161075457829003601f168201915b505050505093506040518060200160405280600081525092919097509750975097509750975050505b91939550919395565b60075481565b600160009054906101000a900473ffffffffffffffffffffffffffffffffffffffff1673ffffffffffffffffffffffffffffffffffffffff163373ffffffffffffffffffffffffffffffffffffffff1614610839576040517f08c379a0000000000000000000000000000000000000000000000000000000008152600401610830906121ae565b60405180910390fd5b6108416119e8565b47811115610884576040517f08c379a000000000000000000000000000000000000000000000000000000000815260040161087b9061221a565b60405180910390fd5b3373ffffffffffffffffffffffffffffffffffffffff166108fc829081150290604051600060405180830381858888f193505050501580156108ca573d6000803e3d6000fd5b506108d3611a37565b50565b600a6020528160005260406000206020528060005260406000206000915091509054906101000a900460ff1681565b60055481565b600160009054906101000a900473ffffffffffffffffffffffffffffffffffffffff1673ffffffffffffffffffffffffffffffffffffffff163373ffffffffffffffffffffffffffffffffffffffff161461099b576040517f08c379a0000000000000000000000000000000000000000000000000000000008152600401610992906121ae565b60405180910390fd5b8060048190555050565b60045481565b6109b36119e8565b600034116109f6576040517f08c379a00000000000000000000000000000000000000000000000000000000081526004016109ed906122ac565b60405180910390fd5b600073ffffffffffffffffffffffffffffffffffffffff168173ffffffffffffffffffffffffffffffffffffffff1603610a65576040517f08c379a0000000000000000000000000000000000000000000000000000000008152600401610a5c90612318565b60405180910390fd5b6000600860008373ffffffffffffffffffffffffffffffffffffffff1673ffffffffffffffffffffffffffffffffffffffff1681526020019081526020016000206001018054610ab490612131565b905011610af6576040517f08c379a0000000000000000000000000000000000000000000000000000000008152600401610aed90612384565b60405180910390fd5b60008173ffffffffffffffffffffffffffffffffffffffff1634604051610b1c906123d5565b60006040518083038185875af1925050503d8060008114610b59576040519150601f19603f3d011682016040523d82523d6000602084013e610b5e565b606091505b5050905080610ba2576040517f08c379a0000000000000000000000000000000000000000000000000000000008152600401610b9990612436565b60405180910390fd5b3373ffffffffffffffffffffffffffffffffffffffff168273ffffffffffffffffffffffffffffffffffffffff167f91d9aec1bf873fb589194ec67c304522c89e9e1de41ed647cf135fb41226befc34604051610bff9190611c46565b60405180910390a350610c10611a37565b50565b6000610c1f6003611a41565b905090565b600160009054906101000a900473ffffffffffffffffffffffffffffffffffffffff1673ffffffffffffffffffffffffffffffffffffffff163373ffffffffffffffffffffffffffffffffffffffff1614610cb4576040517f08c379a0000000000000000000000000000000000000000000000000000000008152600401610cab906121ae565b60405180910390fd5b610cbc6119e8565b600047905060008111610d04576040517f08c379a0000000000000000000000000000000000000000000000000000000008152600401610cfb906124a2565b60405180910390fd5b3373ffffffffffffffffffffffffffffffffffffffff166108fc829081150290604051600060405180830381858888f19350505050158015610d4a573d6000803e3d6000fd5b5050610d54611a37565b565b600160009054906101000a900473ffffffffffffffffffffffffffffffffffffffff1681565b6009602052806000526040600020600091509050806000015490806001018054610da590612131565b80601f0160208091040260200160405190810160405280929190818152602001828054610dd190612131565b8015610e1e5780601f10610df357610100808354040283529160200191610e1e565b820191906000526020600020905b815481529060010190602001808311610e0157829003601f168201915b505050505090806002018054610e3390612131565b80601f0160208091040260200160405190810160405280929190818152602001828054610e5f90612131565b8015610eac5780601f10610e8157610100808354040283529160200191610eac565b820191906000526020600020905b815481529060010190602001808311610e8f57829003601f168201915b5050505050908060030160009054906101000a900473ffffffffffffffffffffffffffffffffffffffff16908060040154905085565b6000825111610f26576040517f08c379a0000000000000000000000000000000000000000000000000000000008152600401610f1d9061250e565b60405180910390fd5b6000600860003373ffffffffffffffffffffffffffffffffffffffff1673ffffffffffffffffffffffffffffffffffffffff1681526020019081526020016000206001018054610f7590612131565b905014610fb7576040517f08c379a0000000000000000000000000000000000000000000000000000000008152600401610fae9061257a565b60405180910390fd5b610fc16002611a4f565b6000610fcd6002611a41565b905060405180608001604052808281526020018481526020018381526020013373ffffffffffffffffffffffffffffffffffffffff16815250600860003373ffffffffffffffffffffffffffffffffffffffff1673ffffffffffffffffffffffffffffffffffffffff1681526020019081526020016000206000820151816000015560208201518160010190816110649190612746565b50604082015181600201908161107a9190612746565b5060608201518160030160006101000a81548173ffffffffffffffffffffffffffffffffffffffff021916908373ffffffffffffffffffffffffffffffffffffffff1602179055509050503373ffffffffffffffffffffffffffffffffffffffff16817f9f150021d8fd04eb219a39e3019273bddf99a9a2e434dd2aa8132e32ea9244b060405160405180910390a3505050565b600860205280600052604060002060009150905080600001549080600101805461113790612131565b80601f016020809104026020016040519081016040528092919081815260200182805461116390612131565b80156111b05780601f10611185576101008083540402835291602001916111b0565b820191906000526020600020905b81548152906001019060200180831161119357829003601f168201915b5050505050908060020180546111c590612131565b80601f01602080910402602001604051908101604052809291908181526020018280546111f190612131565b801561123e5780601f106112135761010080835404028352916020019161123e565b820191906000526020600020905b81548152906001019060200180831161122157829003601f168201915b5050505050908060030160009054906101000a900473ffffffffffffffffffffffffffffffffffffffff16905084565b60065481565b6000600860003373ffffffffffffffffffffffffffffffffffffffff1673ffffffffffffffffffffffffffffffffffffffff16815260200190815260200160002060010180546112c390612131565b905011611305576040517f08c379a00000000000000000000000000000000000000000000000000000000081526004016112fc90612864565b60405180910390fd5b61130d6119e8565b600454341015611352576040517f08c379a0000000000000000000000000000000000000000000000000000000008152600401611349906128d0565b60405180910390fd5b6000835111611396576040517f08c379a000000000000000000000000000000000000000000000000000000000815260040161138d9061293c565b60405180910390fd5b60008251116113da576040517f08c379a00000000000000000000000000000000000000000000000000000000081526004016113d1906129a8565b60405180910390fd5b60006064600654346113ec91906129f7565b6113f69190612a68565b9050600081346114069190612a99565b905060008111156114bf5760003373ffffffffffffffffffffffffffffffffffffffff1682604051611437906123d5565b60006040518083038185875af1925050503d8060008114611474576040519150601f19603f3d011682016040523d82523d6000602084013e611479565b606091505b50509050806114bd576040517f08c379a00000000000000000000000000000000000000000000000000000000081526004016114b490612b19565b60405180910390fd5b505b6114c96003611a4f565b60006114d56003611a41565b90506040518060a001604052808281526020018781526020018681526020013373ffffffffffffffffffffffffffffffffffffffff16815260200185815250600960008381526020019081526020016000206000820151816000015560208201518160010190816115469190612746565b50604082015181600201908161155c9190612746565b5060608201518160030160006101000a81548173ffffffffffffffffffffffffffffffffffffffff021916908373ffffffffffffffffffffffffffffffffffffffff160217905550608082015181600401559050503373ffffffffffffffffffffffffffffffffffffffff16817ff0b635b744b2c090c42bf930868b118a736a962eb2e1fc8a8fe440a7911913d660405160405180910390a3505050611600611a37565b505050565b600160009054906101000a900473ffffffffffffffffffffffffffffffffffffffff1673ffffffffffffffffffffffffffffffffffffffff163373ffffffffffffffffffffffffffffffffffffffff1614611695576040517f08c379a000000000000000000000000000000000000000000000000000000000815260040161168c906121ae565b60405180910390fd5b60648111156116d9576040517f08c379a00000000000000000000000000000000000000000000000000000000081526004016116d090612b85565b60405180910390fd5b8060078190555050565b6116eb6119e8565b60006009600083815260200190815260200160002090506000816000015403611749576040517f08c379a0000000000000000000000000000000000000000000000000000000008152600401611740906120e2565b60405180910390fd5b8060040154341015611790576040517f08c379a000000000000000000000000000000000000000000000000000000000815260040161178790612bf1565b60405180910390fd5b600a600083815260200190815260200160002060003373ffffffffffffffffffffffffffffffffffffffff1673ffffffffffffffffffffffffffffffffffffffff16815260200190815260200160002060009054906101000a900460ff161561182e576040517f08c379a000000000000000000000000000000000000000000000000000000000815260040161182590612c5d565b60405180910390fd5b600060646007543461184091906129f7565b61184a9190612a68565b90506000813461185a9190612a99565b905060008360030160009054906101000a900473ffffffffffffffffffffffffffffffffffffffff1673ffffffffffffffffffffffffffffffffffffffff16826040516118a6906123d5565b60006040518083038185875af1925050503d80600081146118e3576040519150601f19603f3d011682016040523d82523d6000602084013e6118e8565b606091505b505090508061192c576040517f08c379a000000000000000000000000000000000000000000000000000000000815260040161192390612b19565b60405180910390fd5b6001600a600087815260200190815260200160002060003373ffffffffffffffffffffffffffffffffffffffff1673ffffffffffffffffffffffffffffffffffffffff16815260200190815260200160002060006101000a81548160ff0219169083151502179055503373ffffffffffffffffffffffffffffffffffffffff16857fd89fde5f17ca861436c49e7b04f0175340f32685d7082679e242ae42d0ce7a2360405160405180910390a3505050506119e5611a37565b50565b600260005403611a2d576040517f08c379a0000000000000000000000000000000000000000000000000000000008152600401611a2490612cc9565b60405180910390fd5b6002600081905550565b6001600081905550565b600081600001549050919050565b6001816000016000828254019250508190555050565b6000604051905090565b600080fd5b600080fd5b6000819050919050565b611a8c81611a79565b8114611a9757600080fd5b50565b600081359050611aa981611a83565b92915050565b600060208284031215611ac557611ac4611a6f565b5b6000611ad384828501611a9a565b91505092915050565b611ae581611a79565b82525050565b600081519050919050565b600082825260208201905092915050565b60005b83811015611b25578082015181840152602081019050611b0a565b60008484015250505050565b6000601f19601f8301169050919050565b6000611b4d82611aeb565b611b578185611af6565b9350611b67818560208601611b07565b611b7081611b31565b840191505092915050565b600073ffffffffffffffffffffffffffffffffffffffff82169050919050565b6000611ba682611b7b565b9050919050565b611bb681611b9b565b82525050565b60008115159050919050565b611bd181611bbc565b82525050565b600060c082019050611bec6000830189611adc565b8181036020830152611bfe8188611b42565b90508181036040830152611c128187611b42565b9050611c216060830186611bad565b611c2e6080830185611adc565b611c3b60a0830184611bc8565b979650505050505050565b6000602082019050611c5b6000830184611adc565b92915050565b611c6a81611b9b565b8114611c7557600080fd5b50565b600081359050611c8781611c61565b92915050565b60008060408385031215611ca457611ca3611a6f565b5b6000611cb285828601611a9a565b9250506020611cc385828601611c78565b9150509250929050565b6000602082019050611ce26000830184611bc8565b92915050565b6000611cf382611b7b565b9050919050565b611d0381611ce8565b8114611d0e57600080fd5b50565b600081359050611d2081611cfa565b92915050565b600060208284031215611d3c57611d3b611a6f565b5b6000611d4a84828501611d11565b91505092915050565b6000602082019050611d686000830184611bad565b92915050565b611d7781611ce8565b82525050565b600060a082019050611d926000830188611adc565b8181036020830152611da48187611b42565b90508181036040830152611db88186611b42565b9050611dc76060830185611d6e565b611dd46080830184611adc565b9695505050505050565b600080fd5b600080fd5b7f4e487b7100000000000000000000000000000000000000000000000000000000600052604160045260246000fd5b611e2082611b31565b810181811067ffffffffffffffff82111715611e3f57611e3e611de8565b5b80604052505050565b6000611e52611a65565b9050611e5e8282611e17565b919050565b600067ffffffffffffffff821115611e7e57611e7d611de8565b5b611e8782611b31565b9050602081019050919050565b82818337600083830152505050565b6000611eb6611eb184611e63565b611e48565b905082815260208101848484011115611ed257611ed1611de3565b5b611edd848285611e94565b509392505050565b600082601f830112611efa57611ef9611dde565b5b8135611f0a848260208601611ea3565b91505092915050565b60008060408385031215611f2a57611f29611a6f565b5b600083013567ffffffffffffffff811115611f4857611f47611a74565b5b611f5485828601611ee5565b925050602083013567ffffffffffffffff811115611f7557611f74611a74565b5b611f8185828601611ee5565b9150509250929050565b600060208284031215611fa157611fa0611a6f565b5b6000611faf84828501611c78565b91505092915050565b6000608082019050611fcd6000830187611adc565b8181036020830152611fdf8186611b42565b90508181036040830152611ff38185611b42565b90506120026060830184611bad565b95945050505050565b60008060006060848603121561202457612023611a6f565b5b600084013567ffffffffffffffff81111561204257612041611a74565b5b61204e86828701611ee5565b935050602084013567ffffffffffffffff81111561206f5761206e611a74565b5b61207b86828701611ee5565b925050604061208c86828701611a9a565b9150509250925092565b7f436f6e74656e7420646f6573206e6f7420657869737400000000000000000000600082015250565b60006120cc601683611af6565b91506120d782612096565b602082019050919050565b600060208201905081810360008301526120fb816120bf565b9050919050565b7f4e487b7100000000000000000000000000000000000000000000000000000000600052602260045260246000fd5b6000600282049050600182168061214957607f821691505b60208210810361215c5761215b612102565b5b50919050565b7f43616c6c6572206973206e6f7420746865206f776e6572000000000000000000600082015250565b6000612198601783611af6565b91506121a382612162565b602082019050919050565b600060208201905081810360008301526121c78161218b565b9050919050565b7f496e73756666696369656e742062616c616e6365000000000000000000000000600082015250565b6000612204601483611af6565b915061220f826121ce565b602082019050919050565b60006020820190508181036000830152612233816121f7565b9050919050565b7f54697020616d6f756e74206d7573742062652067726561746572207468616e2060008201527f7a65726f00000000000000000000000000000000000000000000000000000000602082015250565b6000612296602483611af6565b91506122a18261223a565b604082019050919050565b600060208201905081810360008301526122c581612289565b9050919050565b7f496e76616c69642063726561746f722061646472657373000000000000000000600082015250565b6000612302601783611af6565b915061230d826122cc565b602082019050919050565b60006020820190508181036000830152612331816122f5565b9050919050565b7f43726561746f7220646f6573206e6f74206861766520612070726f66696c6500600082015250565b600061236e601f83611af6565b915061237982612338565b602082019050919050565b6000602082019050818103600083015261239d81612361565b9050919050565b600081905092915050565b50565b60006123bf6000836123a4565b91506123ca826123af565b600082019050919050565b60006123e0826123b2565b9150819050919050565b7f4661696c656420746f2073656e642074697020746f2063726561746f72000000600082015250565b6000612420601d83611af6565b915061242b826123ea565b602082019050919050565b6000602082019050818103600083015261244f81612413565b9050919050565b7f4e6f2066756e647320746f207769746864726177000000000000000000000000600082015250565b600061248c601483611af6565b915061249782612456565b602082019050919050565b600060208201905081810360008301526124bb8161247f565b9050919050565b7f557365726e616d65206973207265717569726564000000000000000000000000600082015250565b60006124f8601483611af6565b9150612503826124c2565b602082019050919050565b60006020820190508181036000830152612527816124eb565b9050919050565b7f50726f66696c6520616c72656164792065786973747300000000000000000000600082015250565b6000612564601683611af6565b915061256f8261252e565b602082019050919050565b6000602082019050818103600083015261259381612557565b9050919050565b60008190508160005260206000209050919050565b60006020601f8301049050919050565b600082821b905092915050565b6000600883026125fc7fffffffffffffffffffffffffffffffffffffffffffffffffffffffffffffffff826125bf565b61260686836125bf565b95508019841693508086168417925050509392505050565b6000819050919050565b600061264361263e61263984611a79565b61261e565b611a79565b9050919050565b6000819050919050565b61265d83612628565b6126716126698261264a565b8484546125cc565b825550505050565b600090565b612686612679565b612691818484612654565b505050565b5b818110156126b5576126aa60008261267e565b600181019050612697565b5050565b601f8211156126fa576126cb8161259a565b6126d4846125af565b810160208510156126e3578190505b6126f76126ef856125af565b830182612696565b50505b505050565b600082821c905092915050565b600061271d600019846008026126ff565b1980831691505092915050565b6000612736838361270c565b9150826002028217905092915050565b61274f82611aeb565b67ffffffffffffffff81111561276857612767611de8565b5b6127728254612131565b61277d8282856126b9565b600060209050601f8311600181146127b0576000841561279e578287015190505b6127a8858261272a565b865550612810565b601f1984166127be8661259a565b60005b828110156127e6578489015182556001820191506020850194506020810190506127c1565b8683101561280357848901516127ff601f89168261270c565b8355505b6001600288020188555050505b505050505050565b7f50726f66696c6520646f6573206e6f7420657869737400000000000000000000600082015250565b600061284e601683611af6565b915061285982612818565b602082019050919050565b6000602082019050818103600083015261287d81612841565b9050919050565b7f496e73756666696369656e7420706f7374696e67206665650000000000000000600082015250565b60006128ba601883611af6565b91506128c582612884565b602082019050919050565b600060208201905081810360008301526128e9816128ad565b9050919050565b7f5469746c65206973207265717569726564000000000000000000000000000000600082015250565b6000612926601183611af6565b9150612931826128f0565b602082019050919050565b6000602082019050818103600083015261295581612919565b9050919050565b7f436f6e74656e7420626f64792069732072657175697265640000000000000000600082015250565b6000612992601883611af6565b915061299d8261295c565b602082019050919050565b600060208201905081810360008301526129c181612985565b9050919050565b7f4e487b7100000000000000000000000000000000000000000000000000000000600052601160045260246000fd5b6000612a0282611a79565b9150612a0d83611a79565b9250828202612a1b81611a79565b91508282048414831517612a3257612a316129c8565b5b5092915050565b7f4e487b7100000000000000000000000000000000000000000000000000000000600052601260045260246000fd5b6000612a7382611a79565b9150612a7e83611a79565b925082612a8e57612a8d612a39565b5b828204905092915050565b6000612aa482611a79565b9150612aaf83611a79565b9250828203905081811115612ac757612ac66129c8565b5b92915050565b7f4661696c656420746f2073656e642066656520746f2063726561746f72000000600082015250565b6000612b03601d83611af6565b9150612b0e82612acd565b602082019050919050565b60006020820190508181036000830152612b3281612af6565b9050919050565b7f496e76616c69642070657263656e746167650000000000000000000000000000600082015250565b6000612b6f601283611af6565b9150612b7a82612b39565b602082019050919050565b60006020820190508181036000830152612b9e81612b62565b9050919050565b7f496e73756666696369656e742061636365737320666565000000000000000000600082015250565b6000612bdb601783611af6565b9150612be682612ba5565b602082019050919050565b60006020820190508181036000830152612c0a81612bce565b9050919050565b7f416c726561647920707572636861736564000000000000000000000000000000600082015250565b6000612c47601183611af6565b9150612c5282612c11565b602082019050919050565b60006020820190508181036000830152612c7681612c3a565b9050919050565b7f5265656e7472616e637947756172643a207265656e7472616e742063616c6c00600082015250565b6000612cb3601f83611af6565b9150612cbe82612c7d565b602082019050919050565b60006020820190508181036000830152612ce281612ca6565b905091905056fea2646970667358221220842ea1a5d9e0f90806003097e984d9684519e18a5767a3232cf0a3a2a58cb9e064736f6c63430008120033",
  "linkReferences": {},
  "deployedLinkReferences": {}
}